:100EB700543A002E30002C483A002C4C3A000D0AC8
:100EC7000048756D693A30302E302552482000545D
:100ED700656D703A30302E3043204C653A30300023
:100EE700044500000000024A0000013D1A013E17B8
:100EF700043F000000000438000000000121000149
:0C0F0700370001490002430000012200F5
:100FFE00E4FDFCC3ED9FEC9E5015E4FBFA0BBB0029
:0F100E00010AEB64784A70F50DBD00010C80E417
:01101D0022B0
:0B10B3007F051210BE8E90D2A77F05B3
:0A10BE00EFD3940040031F80F722D7
:0C113B00AE07C2A6C2A51210B3C2A722C4
:100F1400E47B64FAF9F812089DAC00AD01AE02AFAF
:0E0F2400037B0AE4FAF9F812089DEF2430FF6F
:0C0F3200AE07C2A6D2A51210B3C2A722BF
:1010C8007F3812113B7F0612113B7F0C12113B7FB8
:0410D8000102113BC5
:07114700EF4480FF02113BA1
:100F8F00BF0102E4FCBF02027C40EC2D14FCFF12F7
:100F9F001147120800FF600C120F32740129F9E497
:040FAF003AFA80EE9C
:010FB300221B
:100CCC00E4FEFDC2B3D2B40000C2B500D2B3000042
:100CDC00EF7010C2B3D2B400D2B30000C2B3C2B42E
:100CEC0000800EC2B3D2B40000D2B30000C2B3D2A3
:100CFC00B400D2B300C2B300D2B4E4FF00EE25E0DE
:100D0C00FED2B30000C2B30030B40543060180002C
:100D1C000FBF08E8E4FFEDC313FD30B405430580B5
:100D2C00800000D2B30000C2B3000FBF08E8EEB5DC
:100D3C00050BAF05E48F48F547F546F5450000D2A5
:090D4C00B5D2B4D2B3AE47AF48F2
:010D5500227B
:10109D0075985053890F438920758DFD758BFDD241
:0610AD008ED2ACD2AF228E
:10105700E4FDFC8F9920990D0DED70010CC39410E0
:07106700EC942740F0C29950
:01106E00225F
:100FB4008B098A0A890BAB09AA0AA90B12080060DB
:100FC40013050BE50B7002050A14F9120800FF1251
:050FD400105780E2222D
:040D5600AB07AA0637
:100D5A00E4F50FEB4A70057F30021057C3EA64804E
:100D6A009480500C7F2D121057C3E49BFBE49AFA2F
:100D7A00D3EB9400EA64809480402A7C007D0AAF19
:100D8A0003AE0212082BED2430FFAE0F050F7409D3
:100D9A002EF8A6077C007D0AAF03AE0212082BAA22
:100DAA0006AB0780CBE50FD39400400E150F7409EC
:0A0DBA00250FF8E6FF12105780EB3A
:010DC400220C
:03002300020E2D9D
:0E0E2D00C0E0C0D075D000C000C00730983DB6
:100E3B00859908C298E54964016032E508640A6047
:100E4B0005E508B40D13E537D39400402074232532
:100E5B0037F876007549018014AF37053774232FA7
:0D0E6B00F8A608E537C3941440037537005E
:090E7800D007D000D0D0D0E03248
:060DC5007B007A00792991
:060DCB008B098A0A890B66
:100DD100E4F50CF50D750E01120800B42D05750E24
:100DE100FF8030AB09AA0AA90B120800FFC3943097
:100DF100402EEFD394395028EF24D0FBE434FFFA8E
:100E0100AE0CAF0D7C007D0A120819EF2BF50DEE2B
:100E11003AF50C7401250BF50BE4350AF50A80C38C
:0B0E2100AF0E7E00AC0CAD0D120819E6
:010E2C0022A3
:1010EF00EFD39400400B7E147DF8DDFEDEFA1F80F7
:0110FF00EF01
:0111000022CC
:0E112000C2B77F0A1210EFD2B77F0A0210EF9B
:100B5600E4FF120CCC7C017D2C120940E47BFFFAE9
:100B6600F9F812089D8F428E418D408C3F7F01120D
:100B76000CCC7C007D0F120940E47BFFFAF9F812D9
:100B8600089D8F3B8E3A8D398C387F05121147E4CC
:100B96007BE87A03F9F8AF42AE41AD40AC3F1208AC
:100BA6009DAC00AD01AE02AF037B64120F27AF42CE
:100BB600AE41AD40AC3F120F147F2E120F32E47BD4
:100BC6000AFAF9F8AF42AE41AD40AC3F12089DEBD0
:100BD6002430FF120F327F45121147AE4CAF4D7CC9
:100BE600007D6412082B7E007F0ACFCDCFCECCCEFF
:100BF60012082B120F2EAE4CAF4D7C007D0A120848
:100C06002BED2430FF120F327F2E120F327F30125F
:100C16000F327F4E121147AF3BAE3AAD39AC3812A8
:100C26000F14E47B0AFAF9F8AF3BAE3AAD39AC38AB
:0A0C360012089DEB2430FF020F327C
:1010DC00E4F5091210860509E509C3942840F47556
:0210EC002101E0
:0110EE0022DF
:10106F00E4F5097F327E0012103C0509E509C394AF
:06107F002840F0E4F52119
:011085002248
:1009C2001210C812109D7BFF7A0E79C87D017F013B
:1009D200120F8F7A0E79D67F02120F8FD2B7D2B64C
:1009E200752101120B5612112E120F3E8E4C8F4D95
:1009F200E5497003020A8BE523644F7031E52464F4
:100A020055702BE52564547025E526643A701F75F0
:100A12002201E527B4310BD2B6E52170641210DC55
:100A2200805FC2B6E521B4010312106F8053E52343
:100A320064537025E5246445701FE52564547019DC
:100A4200E526B45414E527B4480FE528B43A0A124F
:100A52000DC58F3DE4F5228028E52364537025E51A
:100A6200246445701FE525B4541AE526B45415E5EF
:100A720027B44C10E528B43A0B120DC58F3EE4F5AD
:100A820022121120E4F537F549E522703F7F08FE76
:100A9200FDFCAB3BAA3AA939A838C312092F400B77
:100AA200E52170071210DCD2B6801EE47F05FEFD40
:100AB200FCAB3BAA3AA939A838D312092F500DE54D
:100AC20021B4010812106FC2B61211200544E54488
:100AD20070020543D39419E543940050030209E5DB
:100AE200E4F543F5447BFF7A0E79B7120FB4AF4DAC
:100AF200AE4C120D567BFF7A0E79BA120FB47BFF01
:100B02007A0E79BD120FB4E47B0AFAF9F8AF42AE5D
:100B120041AD40AC3F12089D120D567F2E12105768
:100B2200E47B0AFAF9F8AF42AE41AD40AC3F12089D
:100B32009DEB2430FF1210577BFF7A0E79C1120F02
:100B4200B4AE3AAF3B120D567BFF7A0E79C5120F47
:040B5200B40209E5FB
:041111007F067E00D7
:0B111500EF1FAC0670011E4C70F622AC
:100E8100D20030002E30001DD2A07F017E00121151
:100E910015C2A07F327E00121115D2A0121111A22B
:100EA100A0920080E07F2D7E00121115A2A0B392C6
:050EB1000080CFD2A07B
:010EB6002219
:020FD900AD0762
:100FDB00E4FBD2A000C2A000000000ED1392A0120F
:100FEB001111EDC313FD0BBB08E8D2A07F017E00EE
:030FFB00021115CB
:100F6700E4FDFBD2A000EDC313FDC2A0000000000A
:100F7700D2A00000000030A0034305801211110B1E
:070F8700BB08E0D2A0AF059A
:010F8E002240
:0D112E00120E817FCC120FD97F44020FD921
:100F3E00120E817FCC120FD97FBE120FD9120F67FE
:100F4E008F09120F678F0AEFFEE509FFEF7804CEC7
:080F5E00A2E713CE13D8F8FF3F
:010F66002268
:10110100F1F3F2F6F4FCF8F9F9F8FCF4F6F2F3F184
:10101E00EF1FAA0670011E4A6013E4FCFDC3ED9497
:0D102E0050EC940050EA0DBD00010C80F064
:01103B002292
:10108600E4FBEB90110193541FF5807F327E001232
:06109600101E0BBB08EC6C
:01109C002231
:04103C008E0A8F0B7E
:10104000E4FBEB90110993541FF580AF0BAE0A122D
:06105000101E0BBB08ECB2
:011056002277
:03000000020C40AF
:0C0C4000787FE4F6D8FD75814D020C872A
:10080000BB010689828A83E0225002E722BBFE02F6
:09081000E32289828A83E4932229
:10081900EF8DF0A4A8F0CF8CF0A428CE8DF0A42EF3
:02082900FE22AD
:10082B00C2D5EC30E709B2D5E4C39DFDE49CFCEEE8
:10083B0030E715B2D5E4C39FFFE49EFE12096DC3EA
:10084B00E49DFDE49CFC800312096D30D507C3E4E5
:06085B009FFFE49EFE2257
:1008610075F008758200EF2FFFEE33FECD33CDCC4E
:1008710033CCC58233C5829BED9AEC99E5829840D1
:100881000CF582EE9BFEED9AFDEC99FC0FD5F0D6AE
:10089100E4CEFBE4CDFAE4CCF9A88222B800C1B9D8
:1008A1000059BA002DEC8BF084CFCECDFCE5F0CB16
:1008B100F97818EF2FFFEE33FEED33FDEC33FCEB4F
:1008C10033FB10D703994004EB99FB0FD8E5E4F90A
:1008D100FA227818EF2FFFEE33FEED33FDEC33FCF7
:1008E100C933C910D7059BE99A4007EC9BFCE99AEB
:1008F100F90FD8E0E4C9FAE4CCFB2275F010EF2F30
:10090100FFEE33FEED33FDCC33CCC833C810D7072F
:100911009BEC9AE899400AED9BFDEC9AFCE899F86A
:0E0921000FD5F0DAE4CDFBE4CCFAE4C8F922FD
:10092F00EB9FF5F0EA9E42F0E99D42F0E89C45F01E
:01093F002295
:10094000EC8EF0A4CCC5F0CCCDF8EFA4CEC5F02D44
:10095000FDE43CFCE8A42EC8C5F03DFDE43CFCEF02
:0D096000A4FFE5F028FEE43DFDE43CFC2290
:100C4C000209C2E493A3F8E493A34003F68001F2F3
:100C5C0008DFF48029E493A3F85407240CC8C333A9
:100C6C00C4540F4420C8834004F456800146F6DF78
:100C7C00E4800B0102040810204080900EE7E47E13
:100C8C00019360BCA3FF543F30E509541FFEE4936D
:100C9C00A360010ECF54C025E060A840B8E493A334
:100CAC00FAE493A3F8E493A3C8C582C8CAC583CA5F
:100CBC00F0A3C8C582C8CAC583CADFE9DEE780BE17
:010F130000DD
:10096D00BC000BBE0029EF8DF084FFADF022E4CC6E
:10097D00F875F008EF2FFFEE33FEEC33FCEE9DEC37
:10098D00984005FCEE9DFE0FD5F0E9E4CEFD22ED7D
:10099D00F8F5F0EE8420D21CFEADF075F008EF2FC7
:1009AD00FFED33FD4007985006D5F0F222C398FDB8
:0509BD000FD5F0EA2255
:00000001FF
